:1000000019C033C032C050C15EC16CC12EC02DC0FA
:100010002CC03BC12AC029C028C027C026C025C08B
:1000200024C023C022C021C020C01FC01EC01EC1CA
:100030001CC01BC011241FBECFEFD2E0DEBFCDBF5E
:1000400011E0A0E0B1E0EEEDF5E002C005900D9208
:10005000AA32B107D9F711E0AAE2B1E001C01D92BE
:10006000A133B107E1F74DD1B8C2CACF83E3809382
:10007000800089E18093810088E893E19093890072
:100080008093880084EC99E090938B0080938A00A1
:100090002A980895E1E8F0E08081887F80832A9A99
:1000A00008951092680008958BB387608BBB87E03A
:1000B00080936800089582E080936B0084E08093D1
:1000C0006C0080E680936D0087E08093680008955F
:1000D00084E084B98AE187B91AB88FEF85B985E4DD
:1000E00088B98FE78BB91092B00085E08093B1009A
:1000F00081E08093700080E28093B60010927B00D4
:1001000080E480BF82E080937F008AEF90E00197D7
:10011000F1F780B7886080BF089582E08A95F1F793
:1001200000B605FC08C0A2DF8BB387608BBB87E0FD
:1001300080936800089580918100887F809381007A
:100140002A9A1092680008951092680084EC99E051
:100150000197F1F74D990BC080912B018B3321F062
:1001600080912B018F5F0EC010922B010DC04E9914
:1001700010C080912B01882321F080912B018150A8
:1001800001C08BE380932B0110922C011092B200DE
:100190001AC032990BC080912A01873121F08091D9
:1001A0002A018F5F0EC010922A010DC019990BC051
:1001B00080912A01882321F080912A01815001C079
:1001C00087E180932A018BB387608BBB87E08093A4
:1001D000680081E080932D010895882311F48CE05C
:1001E00008958D3008F08C50089580912C018F5F18
:1001F00080932C0180912C018C3338F010922C01CB
:1002000080912B018F5F80932B0180912B018C3388
:1002100038F010922B0180912A018F5F80932A0180
:1002200080912A01883110F010922A0180912A01D0
:10023000853020F080912A01863118F084EF91E01A
:1002400002C088E893E190938B0080938A008091AC
:100250002D01882351F480912C0180FF06C081E09C
:1002600090E090938B0080938A0008951F920F92E4
:100270000FB60F9211248F9381E0809330018F91FC
:100280000F900FBE0F901F9018951F920F920FB6F0
:100290000F9211248F9381E080932F018F910F9003
:1002A0000FBE0F901F9018951F920F920FB60F92CE
:1002B00011248F9381E080932E018F910F900FBEB8
:1002C0000F901F9018951F920F920FB60F92112446
:1002D0008F9381E080932E018F910F900FBE0F902E
:1002E0001F9018951F920F920FB60F9211248F93A3
:1002F00081E080932E018F910F900FBE0F901F9081
:100300001895E6DE789400B605FC15C0AFDE82E0F5
:1003100080936B0084E080936C0080E680936D0096
:1003200087E08093680083B7817F83BF83B7816054
:1003300083BF889508C083B7817F866083BF83B7FA
:10034000816083BF889583B78E7F83BF8FDE82E015
:1003500080936B0084E080936C0080E680936D0056
:1003600087E08093680083B7817F83BF83B7816014
:1003700083BF889583B78E7F83BF80912F018823A9
:1003800019F033DF10922F0180912E01882319F08C
:10039000DBDE10922E0180913001882319F0BDDE42
:1003A0001092300100B605FC14C080912A01882308
:1003B00011F48CE003C08D3008F08C5060912B015B
:1003C000EAD083B7817F83BF83B7816083BF88957D
:1003D000D1CF83B7817F866083BF83B7816083BFBE
:1003E0008895C8CF30E142E380FF02C0419A01C046
:1003F0004198242F2A95F1F7439A242F2A95F1F753
:100400004398315019F096958795EECF0895EF9265
:10041000FF920F931F93DF93CF93CDB7DEB72C9747
:100420000FB6F894DEBF0FBECDBF8B876C87DE01A1
:100430001196E0E2F1E08AE001900D928150E1F73F
:100440008B85AB85EC84FC846AE0BBD08E010F5FAA
:100450001F4FF801E80FF11D208130E040E050E02F
:10046000522F4427332722278A2FABD0F801E90FD8
:10047000F11D808190E0A0E0B0E0DC0199278827A1
:10048000282B392B4A2B5B2B8F2D9BD0F801E90FA2
:10049000F11D808190E0A0E0B0E0282B392B4A2BA1
:1004A0005B2B8E2D8ED0080F111DF801808190E0FE
:1004B000A0E0B0E0BA2FA92F982F8827282B392B3E
:1004C0004A2B5B2BB901CA012C960FB6F894DEBFFC
:1004D0000FBECDBFCF91DF911F910F91FF90EF9095
:1004E0000895AF92BF92CF92DF92EF92FF920F9357
:1004F0001F93DF93CF93CDB7DEB7A0970FB6F894D5
:10050000DEBF0FBECDBF7B018C01DE011196E0E0A6
:10051000F1E080E201900D928150E1F7FE01319609
:1005200020E030E040E050E0B1E0AB2EB12CC12C37
:10053000D12CBE016F5D7F4FC70181709070892BF8
:1005400071F0D601C501008004C0880F991FAA1F51
:10055000BB1F0A94D2F7282B392B4A2B5B2B3196E1
:10056000E617F70729F016950795F794E794E4CF77
:10057000B901CA01A0960FB6F894DEBF0FBECDBF79
:10058000CF91DF911F910F91FF90EF90DF90CF906F
:10059000BF90AF900895EF92FF920F931F9337DFB4
:1005A000A0DF7B018C014498CB011CDF7801002780
:1005B0001127C70117DF449A1F910F91FF90EF9009
:1005C0000895991B79E004C0991F961708F0961BAF
:0E05D000881F7A95C9F780950895F894FFCF9B
:1005DE001418191716151B1A101C1D1312111F1E95
:1005EE000C00010F0E0D03020804050B0A09070685
:0A05FE00FC60DAF266B6BEE0FEF61D
:00000001FF
